:100000000C9410020C9438020C9438020C943802B0
:100010000C9438020C9438020C9438020C94380278
:100020000C9438020C9438020C9438020C94371259
:100030000C9438020C9438020C9438020C94380258
:100040000C94C7120C9438020C9440150C948E1525
:100050000C9438020C9438020C9438020C94380238
:100060000C9438020C9438024275696E6F20576107
:1000700072730053617665642100425741525320E8
:1000800076302E30310090009E00A300A800A3001F
:10009000436F6E74696E75652047616D65005361CD
:1000A00076650045786974004E65772047616D6517
:1000B0000003053F213F1208120A100A0E1C0E0C05
:1000C0001E0C141A14161F161E131E1E1B1E1E1F96
:1000D0001E3F213F3A2F3A173D173F213F181F027D
:1000E000040A041F0E04040E1F0A1F0A0E0E1F042A
:1000F000110E2E252E2F2A2E262929021F02081F17
:1001000008150E04040E150E15151B151B04060408
:10011000040C040000000017000300031F0A1F1650
:10012000371A1904130A153A000300000E11110EB4
:10013000000A040A040E0400300004040400100045
:100140001804031F111F121F101D151711151F076B
:10015000041F17151D1F151D01011F1F151F171542
:100160001F000A00003200040A110A0A0A110A04D8
:100170000115020E11171E051E1F150A0E110A1F6A
:10018000110E1F15111F05010E111D1F041F111F38
:100190001108100F1F041B1F10101F061F1E040F35
:1001A0000E110E1F09060E112E1F051A1215090138
:1001B0001F011F101F0F180F1F0C1F1B041B031CF8
:1001C00003191513001F11030418111F0002010267
:1001D0002020200001020C121E1F120C0C12120C07
:1001E000121F0C1A14041E05242A1E1F021C141DA3
:1001F0001020201D1F0814111F101E041E1E021C9B
:100200000C120C3E0A040C123E1E040214160A02C2
:100210000F120E101E0E100E1E081E120C12262893
:100220001E322A26041E21001F00211E0401020185
:100230003F213F0A4E6F2053442063617264206F58
:10024000720A6E6F204C4F414445522E4845580A61
:100250000A153A45786974001D20466C6173686917
:100260006E670A20206C6F616465722E2E2E0A0A5A
:10027000444F4E2754205455524E204F464621009D
:100280006D560A0A504C454153450A5455524E206A
:100290004F4646004C4F5720424154544552590A4C
:1002A00000177361766500166261636B00157479DF
:1002B0007065000A0A0A153A6F6B617920163A6573
:1002C00064697400596F7520656E74657265640A9F
:1002D00000540A03E181867F3E186D830F0F0E01E3
:1002E00083866033186DC3198F1803C38E6033186B
:1002F0006DE330CF1803C39E603630CDE360CF305E
:1003000006C79E7E3E30CDB360CF300CC6F660335C
:1003100030D9B660CF33CFCCF66061B0DB1E60CF92
:1003200030D86CE6C061B0DB1E618F19986CC6C016
:1003300063B19B0E330F0FB078C6FF7E1F1B061EE6
:100340000F175344001613780016131400151020CD
:10035000001520100000000500893008023802490D
:100360007868140000450068010000050068013845
:100370000100000500380168010000F6E8DBCFC38A
:10038000B8AEA49B928A827B746E68625C57524EB0
:100390004945413E3A3734312E2C29272523211F48
:1003A0001D1C1A1917161514131211100F0E0D0C0F
:1003B0000B0A09080706BA03BE030101F70301018E
:1003C000FF0300000000240027002A0000000000B6
:1003D000250028002B000000000023002600290033
:1003E00004040404040404040202020202020303DB
:1003F00003030303010204081020408001020408E3
:100400001020010204081020000000070002010073
:100410000003040600000000000000004A02FA1673
:1004200011241FBECFEFD8E0DEBFCDBF11E0A0E0AA
:10043000B1E0E8E1F5E302C005900D92A433B10705
:10044000D9F714E0A4E3B1E001C01D92A837B107C9
:10045000E1F714E0C0E2D4E004C02297FE010E945C
:10046000861ACC31D107C9F70E9450170C948A1A0A
:100470000C940000FB01DC018D91059080190110A6
:10048000D9F3990B0895FB01DC0105900D92002032
:10049000E1F70895109285011092840180E291E0C5
:1004A000909383018093820108958AEB91E06AE73B
:1004B00070E00E943A0220E0892B09F421E0822FAB
:1004C00008958AEB91E06AE770E00E944302089584
:1004D000CF93DF93C0E0D0E0FE01E654FE4F84EC02
:1004E00093E0BE0140810E94BB122196CC30D10521
:1004F00099F7DF91CF9108950E94680284E391E01B
:1005000063E770E048E20E94F4098FEA92E090937A
:100510001901809318010895CF93DF93C0E0D0E0D4
:1005200084EC93E0BE010E94B412FE01E654FE4F3B
:1005300080832196CC30D10599F7DF91CF91089532
:1005400084E391E068E670E00E94420F0E948C0212
:100550008FEA92E0909319018093180108950E9408
:100560005502882371F084E391E066E870E043E08F
:100570000E947D0C882381F0813089F48CE792E021
:1005800010C084E391E06CE870E042E00E947D0CD2
:10059000882329F40E94610286ED92E002C080EA7D
:1005A00092E0909319018093180108958EE391E0F1
:1005B00066E00E94EA03882339F08FEA92E0909384
:1005C000190180931801089582E891E060E071E0DC
:1005D0000E948818089584E391E00E94C40B882348
:1005E00029F0E0911801F09119010995089586E527
:1005F00094E040E855E260E070E00E94C91584E3B1
:1006000091E00E94470F0E94610286ED92E0909374
:1006100019018093180108958AE061E00E949814FE
:100620008AE061E00E9459148CB580618CBD8CB564
:1006300080648CBD8DE061E00E9459148BE061E024
:100640000E9459140895FC0181E08083089585E09B
:1006500070E00E94F91308956F927F928F929F929B
:10066000AF92BF92CF92DF92EF92FF920F931F93C0
:10067000CF93DF93EC0189819A818C0124E0000FF4
:10068000111F2A95E1F7081B190B85E10E94D7136A
:10069000BC01600F711F84E0769567958A95E1F73C
:1006A0007A8369838881882381F12E813F81621753
:1006B000730710F4B90106C08885998586179707D6
:1006C00008F4BC0100D000D080E090E040E050E0B1
:1006D000E884F98400E010E0AD80BB24CC24DD2464
:1006E0006C80772488249924EDB7FEB761827282EA
:1006F000838294820E949B186B830F900F900F90BF
:100700000F9085E070E00E94F913DF91CF911F9167
:100710000F91FF90EF90DF90CF90BF90AF909F90A0
:100720008F907F906F900895FC018CE39FE09383FE
:10073000828384E0818381E084870895CF93DF936F
:10074000EC018C8590E08F719070892B69F584E1C4
:100750000E94D713AA2797FDA095BA2FBC01CD01FF
:100760000E94121926EE3FE34EEC50E40E949E19BF
:100770000E94E4189B01AC017B836A8361157105BB
:1007800089F084E08983B901FE0120E084819581AC
:100790006817790710F429830AC02F5F3296243036
:1007A000A9F702C08FEF89838C858F5F8C87DF91DB
:1007B000CF910895FC0188E0808389E0818387E000
:1007C000828386E0838384E0848382E0858381E181
:1007D0008683089520E0FC01E60FF11D87818130BA
:1007E00009F421E0822F0895E62FF0E0423040F432
:1007F00020E0E80FF91F878181508E3F88F40FC0F9
:10080000E80FF91F87818F3F11F420E009C020E035
:1008100090E0642F70E00E94201A019709F421E013
:10082000822F08950F931F93CF93DF93EC0110E075
:100830000FEF888162E00E94591488810E94EC14B5
:100840002F81892B19F42F5F2F8307C0222349F0B2
:100850002F3F11F41F8201C00F83888160E00E9446
:1008600059141F5F2196173021F7DF91CF911F9107
:100870000F910895FC01742F643508F05DC047FDA9
:100880005BC040330CF058C0878D823019F5842F3F
:10089000859585958595992787FD9095462F5527B0
:1008A00047FD509524E530E0829FF001839FF00DD5
:1008B000929FF00D1124E40FF51FEA53FE4F808143
:1008C00090E0272F277002C0959587952A95E2F72B
:1008D00080958170972F959595959595462F5527DD
:1008E00047FD5095272F27708823A1F4E4E59E0249
:1008F000F0011124E40FF51FEA53FE4F81E090E070
:1009000002C0880F991F2A95E2F78095208128233D
:1009100020830895E4E59E02F0011124E40FF51F01
:10092000EA53FE4F81E090E002C0880F991F2A959C
:10093000E2F72081282B20830895FC01678F60A3B4
:100940000895FC01678F40A30895AF92BF92CF92A4
:10095000DF92EF92FF920F931F93CF93DF93EC01FF
:10096000162FF42EE22EAA24402F552747FD50952E
:100970008F2D992787FD9095481B590B57FF03C072
:10098000509541955F4F2E2D332727FD3095812FB0
:10099000992787FD9095281B390B37FF03C03095A9
:1009A00021953F4F2417350744F4AA24A3948F2D93
:1009B000F12E182F802F0E2DE82EE11634F48E2DF7
:1009C000E12E182F802F0F2DF82EDE2CD11A202F7C
:1009D000332727FD30958F2D992787FD9095281B6C
:1009E000390B37FF03C0309521953F4FB22EF016DB
:1009F0001CF0CC24CA9402C0CC24C3948D2DD7FC07
:100A00008F5F082F059511C0AA2021F0CE016F2D10
:100A1000412F03C0CE01612F4F2D0E943A040B19C4
:100A200007FF02C0FC0C0D0D1F5FE1166CF7DF9194
:100A3000CF911F910F91FF90EF90DF90CF90BF90DB
:100A4000AF9008950F93042F322F262F2150230F9C
:100A50000E94A5040F9108950F93362F042F015083
:100A6000020F232F0E94A5040F9108959F92AF9229
:100A7000BF92CF92DF92EF92FF920F931F93CF938B
:100A8000DF936C01B62E942EA02EC0E0D0E0E62EAF
:100A9000FF24E7FCF094022F112707FD10950E0D9F
:100AA0001F1D06C0C601492D2A2D0E942C05219626
:100AB0006B2D6C0FCE018E0D9F1D8017910794F347
:100AC000DF91CF911F910F91FF90EF90DF90CF902A
:100AD000BF90AF909F9008952F923F925F926F9238
:100AE0007F928F929F92AF92BF92CF92DF92EF92BE
:100AF000FF920F931F93DF93CF9300D000D000D0CD
:100B0000CDB7DEB79E838D83C62ED42EEE24E3941C
:100B1000E21A8EEF289F502C1124842E8A94962E50
:100B20009A94A42EA394B62EB394F22E662423E0B6
:100B3000722E10E0C801847090709A838983F80146
:100B4000E270F070FC83EB8398E0292E312C202298
:100B500031220170107054C0E7FC04C0FA94F2E036
:100B60005F0EE50C639489819A81892B71F04F2D7A
:100B70004D0D8D819E816B2D0E943A046F2D6C0D61
:100B80008D819E814A2D0E943A04EB81FC81EF2BDE
:100B900071F04D2D4F198D819E816B2D0E943A046D
:100BA0006F2D6C0D8D819E81482D0E943A04211479
:100BB000310471F06C2D6F198D819E814A2D0E9438
:100BC0003A044F2D4D0D8D819E81692D0E943A046E
:100BD0000115110571F06C2D6F198D819E81482DC5
:100BE0000E943A044D2D4F198D819E81692D0E94DE
:100BF0003A04E70CF2E07F0E8A949A94A394B3949B
:100C00006F140CF4A9CF26960FB6F894DEBF0FBE72
:100C1000CDBFCF91DF911F910F91FF90EF90DF90AB
:100C2000CF90BF90AF909F908F907F906F905F908C
:100C30003F902F9008954F925F926F927F928F9284
:100C40009F92AF92BF92CF92DF92EF92FF920F935B
:100C50001F93CF93DF93EC01A62E742E9E2DFF24BD
:100C6000F394F21A8EEF289F802C1124B42EBA949C
:100C700053E0C52ECE0CE22EDD2443E0942E10E08E
:100C800031E0432E512C40225122692E6394027090
:100C9000107034C0F7FC04C0EA9482E0880EF80CAF
:100CA000D3944114510489F06D2D6A0D472D4E19CE
:100CB0002E2D220F260DCE010E942C056E2D6A0DC1
:100CC000CE014B2D2C2D0E942C050115110589F00C
:100CD0006A2D6D19472D4E192E2D220F260DCE018E
:100CE0000E942C056A2D6E19CE014B2D2C2D0E94D1
:100CF0002C05F90C82E0980EBA94C80EDE1454F25A
:100D0000DF91CF911F910F91FF90EF90DF90CF90E7
:100D1000BF90AF909F908F907F906F905F904F901B
:100D200008957F928F929F92AF92BF92CF92DF925F
:100D3000EF92FF920F931F936C01962EA42EF22E2A
:100D40007E2C760E1EEFE19E102D1124812E820E38
:100D5000672D282D0E942205B02EBA0CBA94C60128
:100D6000672D4B2D282D0E942205AE0C100FC601B9
:100D7000692D4A2D212F0E942C05F90CFA94C601E9
:100D80006F2D4A2D212F0E942C05C601672D4A2D5B
:100D90002E2D01E00E946C05FE18C6016F2D4A2D14
:100DA0002E2D02E00E946C05BE18C6016F2D4B2D42
:100DB0002E2D04E00E946C05C601672D4B2D2E2DB3
:100DC00008E00E946C051F910F91FF90EF90DF905B
:100DD000CF90BF90AF909F908F907F9008958F920B
:100DE0009F92AF92BF92CF92DF92EF92FF920F93BA
:100DF0001F936C01162FA42E922EF02EBE2C8E2C3B
:100E0000860E2EEFE29EE02C11242E2D290D682D4A
:100E10000E943605AB0CFA94FE0C1150190D1B19EB
:100E2000C601612F4A2D2B2D01E0EF2C0E941B06DD
:100E3000C601682D4A2D2B2D02E00E941B061F9132
:100E40000F91FF90EF90DF90CF90BF90AF909F9069
:100E50008F9008953F924F925F926F927F928F9200
:100E60009F92AF92BF92CF92DF92EF92FF920F9339
:100E70001F93CF93DF934C01362E442EF901A4909B
:100E8000319654906F010894C11CD11C8A2D99276A
:100E900087FD9095079668E070E00E94341AE62E70
:100EA000FF24E7FCF09400E0C0E0D0E060E8662EAC
:100EB000712C26C0E12FE595E595E595FF27E7FD27
:100EC000F095EC0FFD1FEC0DFD1DE4912E2F30E091
:100ED000812F8770A30102C0559547958A95E2F747
:100EE00024233523232B31F0612F630DC4014B2DB7
:100EF0000E943A041F5F1A15ECF20F5FCE0DDF1D42
:100F0000051524F410E0B02EB40CF5CFDF91CF918D
:100F10001F910F91FF90EF90DF90CF90BF90AF9017
:100F20009F908F907F906F905F904F903F9008952B
:100F30003F924F925F926F927F928F929F92AF9269
:100F4000BF92CF92DF92EF92FF920F931F93CF93B6
:100F5000DF93EC01862EA42E422F102F3F8C23E529
:100F600026170CF4ABC03FE23A150CF4A7C0C02E14
:100F7000DD248C8190E001979C01C29EC001C39E3C
:100F8000900DD29E900D1124262F332727FD3095EA
:100F9000820F931F181619060CF090C08D8190E0F7
:100FA0009C01C29EC001C39E900DD29E900D112443
:100FB0002A2D332727FD3095820F931F1816190607
:100FC0000CF07CC09924442E55246DC09C01215006
:100FD00030404217530711F460E00EC0429EC0013A
:100FE000439E900D529E900D1124840F951FED8D00
:100FF000FE8DE80FF91F64914C9DC0014D9D900D31
:101000005C9D900D1124682C680EBB24792C780C03
:101010003FC0E62EFF2460FF19C0113039F44B2D7C
:101020004A0DCE01672D0E943A042EC02C9DC001AE
:101030002D9D900D3C9D900D11244A2D480FCE0101
:10104000662D212F012F0E9436051EC098A18F8D7D
:101050009817D1F09F8F113039F44B2D4A0DCE01E6
:10106000672D0E943A040FC02C9DC0012D9D900D4C
:101070003C9D900D11244A2D480FCE01662D212F45
:10108000012F0E9436053F8EF594E7946E2DB394A0
:101090002B2D332727FD30958D8190E028173907B8
:1010A0000CF4B7CF9394492D552747FD50958C816B
:1010B00090E0481759070CF489CF3F8EDF91CF910C
:1010C0001F910F91FF90EF90DF90CF90BF90AF9066
:1010D0009F908F907F906F905F904F903F9008957A
:1010E0000F93CF93DF93EC01262F6A3049F48D8163
:1010F0009885899F802D11249A85980F9A8726C0FC
:101100006D3029F169854A8508850E9498079C8180
:101110006885969F402D11248985480F49878F81C6
:101120008823A9F0552747FD5095699F9001112408
:1011300084E590E0821B930B8417950744F49D810E
:10114000699F902D11248A85890F8A87198681E0ED
:1011500090E0DF91CF910F9108951F93CF93DF938C
:10116000EC01162FF8948E8560E00E9498148F850C
:1011700018161CF460E00E9498141EBD00000DB407
:1011800007FEFDCF8EB58F8518161CF461E00E9416
:1011900098147894DF91CF911F910895FF920F9347
:1011A0001F93CF93DF93EC01FF2400E010E06F2D3D
:1011B0006064CE010E94AD08CE0160E80E94AD08D7
:1011C0008E8561E00E9498148F8518161CF460E0EB
:1011D0000E949814F801EA53FE4F90E080818EBD82
:1011E00000000DB407FEFDCF8EB59F5F319694359C
:1011F000A9F78F8518161CF461E00E949814F394E7
:101200000C5A1F4F86E0F81691F6CE0160E40E945A
:10121000AD08DF91CF911F910F91FF900895CF936B
:10122000DF93DC0188EF91E0E6ECF1E0EF019C0157
:10123000199221503040E1F719961C9219971A968D
:101240001C92DF91CF910895EF920F93CF93DF938C
:10125000EC014D876C872E87E88A0F8781E08887AD
:101260008F8F18A28F83E1EBF0E084918F5F8C83E6
:10127000319684918F5F8D833196FE8FED8F0E9422
:101280000C038CB58F7D8CBD8CB58C7F81608CBD43
:101290008DB581608DBD8CB58C608CBD8D8561E018
:1012A0000E9459148C8561E00E9459148E8561E07A
:1012B0000E945914888918161CF461E00E94591480
:1012C0008F8518161CF461E00E945914888918163D
:1012D0006CF460E00E9498146AE070E080E090E0B6
:1012E0000E944313888961E00E949814EC852E2F98
:1012F000332727FD3095F901E052FC4FE491F0E0EF
:10130000EE0FFF1FE453FC4F859194919C8B8B8BC8
:101310002C503C4FF90184918A8FED852E2F332775
:1013200027FD3095F901E052FC4FE491F0E0EE0F1B
:10133000FF1FE453FC4F859194919A8B898B2C501D
:101340003C4FF9018491898FEF852E2F332727FD9C
:101350003095F901E052FC4FE491F0E0EE0FFF1FF1
:10136000E453FC4F859194919E8B8D8B2C503C4F78
:10137000F90184918B8FEE852E2F332727FD309531
:10138000F901E052FC4FE491F0E0EE0FFF1FE4534F
:10139000FC4F85919491988F8F8B2C503C4FF90185
:1013A00084918C8FCE0161E20E94AD08CE0164E190
:1013B0000E94AD088B8587FF02C08FE78B876B8506
:1013C0006068CE010E94AD08CE0160E20E94AD08C7
:1013D000CE016CE00E94AD08CE010E94CE08DF91E4
:1013E000CF910F91EF900895FC01ED57FF4F61935E
:1013F0007193445F40830895CF93DF93DC01E0E86D
:10140000F7E785919491ED01C75ADF4FAD0141593E
:101410005F4F8150904C09F04EC0E6E9F7E7E49148
:10142000E883E7E9F7E7E4911496EC931497E8E989
:10143000F7E7E4911596EC931597E9E9F7E78591BD
:10144000949117969C938E931697EBE9F7E7859105
:10145000949119969C938E931897EDE9F7E7E49190
:101460009B96EC939B97EEE9F7E7E4919A96EC93C1
:101470009A97EFE9F7E7E491EA01E883E0EAF7E712
:10148000859194915D969C938E935C97E2EAF7E741
:10149000859194915F969C938E935E97E4EAF7E72B
:1014A0008591949191969C938E939097E6EAF7E7B5
:1014B0008591949132C08CE3888314961C92149782
:1014C0002FEF15962C93159780E293E017969C9337
:1014D0008E93169784ED93E019969C938E931897AC
:1014E00081E09B968C939B979A968C939A97FA019E
:1014F00020838CEA9DE05D969C938E935C978EEDA5
:101500009DE05F969C938E935E9784E79EE0919614
:101510009C938E9390978CE39FE093969C938E93ED
:101520009297DF91CF910895EF92FF920F931F93BF
:10153000CF93DF937C018C01025B1F4FC8010E9497
:101540000F09C80168E572E00E948917C8010E946E
:10155000CE088CB583608CBD8DB58E7F8DBD81E14D
:1015600091E0EEEFFFE3099584E590E0E80EF91EC7
:10157000F7011082C80163E372E00E94D417C8012A
:101580000E94CE08E701CA54D040CE010E94120446
:10159000CE0164E00E94EA03882339F462E370E03C
:1015A00080E090E00E944313F0CFDF91CF911F9134
:1015B0000F91FF90EF9008950F931F93CF93DF93B8
:1015C000EC018C01025B1F4FC80161E040E00E940A
:1015D000A104FE01E95AFF4FCE5ADF4F85E59881FD
:1015E000891B808326961882C855D040698D61304A
:1015F00009F43EC0613028F0888D653008F051C094
:101600004BC0CE0185960E940E10CE0160E00E9474
:101610002703C8010E940F09CA5ADF4F81E088835F
:10162000C655D040C80164E972E00E9489176A8DEE
:101630007B8DC8014AE050E00E947718C80160E83D
:1016400072E00E948917C8010E94CE0883B7817F8B
:10165000846083BF83B7816083BF83B7816083BFAA
:10166000889583B78E7F83BF83B78E7F83BF1FC06C
:10167000C059DF4F88819981AA81BB818F7090709A
:10168000A070B0700897A105B10518F4C80167E013
:101690000CC0C80168E709C0882349F06B5FC80126
:1016A00004C0882321F0C8016FE20E94AC17DF91CB
:1016B000CF911F910F910895AF92BF92CF92DF9279
:1016C000EF92FF920F931F93CF93DF93EC01CB57D1
:1016D000DF4F8881C558D040882309F44AC08C3038
:1016E00010F010E002C01CE0181BCA5ADF4F81E066
:1016F0008883C655D0406EE4C62ED12CCC0EDD1E9C
:10170000C60160E00E949D0453E5A52EB12CAC0EED
:10171000BD1EF50100814DE2F42E4F2D401B410FFF
:101720000D5FC60160E024E533E0E32E0E94EF0682
:10173000C60161E00E949D04F5010081F01AF10EDE
:101740000D5FC60160E04F2D24E50E949106C95A45
:10175000DF4F84E08993F5018081181B115D1883A8
:10176000AB9669917991C6010E9489178881815051
:101770008883DF91CF911F910F91FF90EF90DF90C1
:10178000CF90BF90AF900895AF92BF92CF92DF926B
:10179000EF92FF920F931F93CF93DF93EC01EFE74C
:1017A000AE2EB12CA80EB91EF501E080F1800281A9
:1017B00013810E940F13E61AF70A080B190B7EE734
:1017C000C72ED12CCC0EDD1EF601808190E0A0E06A
:1017D000B0E08E159F05A007B10708F081C08E010B
:1017E00006581F4FF80180819181A281B381009733
:1017F000A105B10509F474C00E940F13F601208100
:10180000620F711D811D911DF501608371838283BB
:101810009383FE01E059FF4F80819181A281B381C2
:101820000196A11DB11D80839183A283B383F8012A
:1018300010821182128213820E941D13CA58DF4F38
:10184000688379838A839B83C657D040CE010E94E8
:101850002C03CE010A960E941204CE0148960E94E3
:101860009E0381E032C08E010B5D1F4FC8010E94B4
:101870000A10C8010E940811C8010E94FE11CE0181
:101880000E945C0BCE010E94DC0A8E01025B1F4F9E
:10189000C8010E94CE08CC5ADF4F8881C455D04081
:1018A000882319F4C8010E940F090E941D13C6580D
:1018B000DF4F688379838A839B83249728813981CA
:1018C000621B730B7A936A9380E0DF91CF911F9133
:1018D0000F91FF90EF90DF90CF90BF90AF90089561
:1018E000C658DF4F88819981AA81BB81CA57D040F1
:1018F0000097A105B10541F7B6CF2F923F924F92C5
:101900005F926F927F928F929F92AF92BF92CF928F
:10191000DF92EF92FF920F931F93DF93CF93CDB798
:10192000DEB762970FB6F894DEBF0FBECDBF6C0175
:101930006C837D834B8324E530E0C20ED31EF60119
:1019400010822CEA3FEFC20ED31E1AE0A12EB12C5A
:10195000AC0CBD1CB5E22B2E312C2C0C3D1CAEE486
:101960004A2E512C4C0C5D1C10E0F0E37F2E6624B7
:101970001A823FEF3983A601495A5F4F5F834E8336
:10198000C601885A9F4F99878887F601EA5AFF4F08
:10199000FB87EA8796012B5A3F4F3D872C87E3E56B
:1019A0008E2E912C8C0C9D1C5B81452F50E05F8707
:1019B0004E878B818150888BC6010E94C40B88237F
:1019C000D9F3C50164E00E94EA03882369F4C501E4
:1019D00065E00E94EA03882339F4C50166E00E94AD
:1019E000EA03882309F4D3C0F4010081C50164E04F
:1019F0000E94EA03882329F0C1010E945B12198327
:101A0000CBC0C1010E946112C7C0C50163E044E0C0
:101A10000E94F403882321F01F5FC1010E94671216
:101A2000C50161E044E00E94F403882321F01150D5
:101A3000C1010E946712812F992787FD90952E85FD
:101A40003F858217930711F410E002C017FD188933
:101A5000F4018081819F902D11248C5F682E691A7A
:101A600028C0872D992787FD9095262D332727FDA0
:101A70003095821B930B0297D4F4898162960FB63E
:101A8000F894DEBF0FBECDBFCF91DF911F910F91B4
:101A9000FF90EF90DF90CF90BF90AF909F908F908E
:101AA0007F906F905F904F903F902F900895F1E05E
:101AB000FA83862D992787FD9095272D332727FDBB
:101AC0003095820F931F62E070E00E94341A762EE8
:101AD000EE81FF811082E885F985608321E0EA8547
:101AE000FB852083EC85FD8510822C813D81C90119
:101AF0009A8B898B00E0E12EFF24E7FCF09420C054
:101B0000802F90E08E159F0569F423E0EE81FF8120
:101B10002083F40180818E9D802D1124870DE8851E
:101B2000F9858083E989FA8965917491C2010E94DF
:101B3000D4170F5F29893A892E5F3F4F3A8B298B43
:101B40003B810317E8F2C20160E00E949D04F401AA
:101B500040814E9D402D11244150470DC20160E04F
:101B600024E50E942205C20161E00E949D04F40167
:101B700000810E9D402D11244250470D0D5FC20182
:101B800060E024E573E0E72E0E94910615CFFA810C
:101B9000FF2309F066CF39CF802F90E09095819593
:101BA0009F4F2E853F85AC01249FC001259F900D3E
:101BB000349F900D11246EEF662E680E52CF2F9237
:101BC0003F924F925F926F927F928F929F92AF92CD
:101BD000BF92CF92DF92EF92FF920F931F93DF930A
:101BE000CF93CDB7DEB72B970FB6F894DEBF0FBEFD
:101BF000CDBF9B878A877A8369835C834B838C0103
:101C000001591F4FF8018081882309F422C18A8578
:101C10009B858A5A9F4F9B878A8781E0EA85FB854F
:101C2000808312921292E455F040FB87EA87108E6F
:101C30009EE4E92EF12CEE0EFF1EC70161E00E942A
:101C40009D048AE0282E312C8A859B85280E391E1A
:101C5000B5E26B2E712C680E791EE981FA81F49140
:101C6000FD83A7E58A2E912C880E991EF8E5CF2ECC
:101C7000D12CC80ED91EE2E54E2E512C480E591E0D
:101C80008D5A9F4F9F838E8370E7A72EB12C8A8534
:101C90009B85A80EB91E198708878A859B850E9497
:101CA000C40B8823D1F39D81992311F410E003C064
:101CB000EE81FF811081C70160E040E021ED32E05C
:101CC0000E942A078B819C81892B41F0145FC701F8
:101CD00060E0412F2B813C810E942A07F401108291
:101CE0008CE0F6018083C70169817A810E9489179F
:101CF000F201208130E0C901880F991F820F931FE4
:101D0000909581959F4F8D5AF4018083EE81FF81DC
:101D1000208130E0C901880F991F820F931F909591
:101D200081959F4F835DF6018083F501808184FF5B
:101D300004C0C70161E573E003C0C7016DE473E04F
:101D40000E94D417F201208130E0C901880F991F49
:101D5000820F931F909581959F4F8D5AF401808338
:101D6000F60180818F5F8083EA85FB8582A58823C9
:101D700021F0C70169E473E003C0C70165E473E0C3
:101D80000E94D417F201808190E09C01220F331F42
:101D9000280F391F309521953F4F2D5AF40120838C
:101DA000F60180818F5F8083C70161E473E00E9448
:101DB000D417C10165E00E94EA03882351F0EA8547
:101DC000FB8562A56F5FC3010E946D12C3010E9473
:101DD0006712C10164E00E94EA03882399F4E88550
:101DE000F9856081262F30E040E050E0F5018081E8
:101DF0009181A281B38182179307A407B50708F1E7
:101E00006F3FF9F08A859B8581599F4F9B878A8711
:101E10008FEFEA85FB858083EF56F040FB87EA87EA
:101E2000C30160E00E94AE0FC3010E945B1281E01B
:101E3000EA85FB85808F0DC08A859B850E94940A68
:101E40002CCFC10166E00E94EA03882309F425CF64
:101E5000F3CF2B960FB6F894DEBF0FBECDBFCF9158
:101E6000DF911F910F91FF90EF90DF90CF90BF9087
:101E7000AF909F908F907F906F905F904F903F902A
:101E80002F90089540E050E00E94DF0D0895AF923A
:101E9000BF92CF92DF92EF920F93CF93DF936C01BB
:101EA0008EE790E0C80ED91E82E3F601808381E0C0
:101EB00090E0A0E0B0E0B293A293929382936F017E
:101EC00085EF9FEFC80ED91E8FEFF601808381E961
:101ED0009FEFC80ED91EC6010E94FC09C6010E94D0
:101EE0002303C6016FEF0E9427034AE0A42EB12C02
:101EF000AC0CBD1CC5010E94DA03C5010E9412048E
:101F0000C60148960E949403C601825B9F4F6DE014
:101F10004BE020E10FE03EE0E32E0E942409E601C1
:101F2000A596CE010E947A12C50165E00E94EA03DF
:101F3000882329F0CE0160E00E946D1206C0CE0118
:101F400067E573E040E00E94C00FDF91CF910F91F1
:101F5000EF90DF90CF90BF90AF900895FC01662383
:101F600071F4178A158A14A213A2108E1092C2035C
:101F70001092C1031092BF031092B4001182089511
:101F80000F931F93CF93DF93EC018B01442371F4E4
:101F900060E00E94AE0F1E870D871B8A1A8A81E0BF
:101FA000898389E08E8B198E1B8E1D8EDF91CF91D8
:101FB0001F910F910895CF93DF93EC01662339F5BC
:101FC0008881882321F18981882309F5898590E01A
:101FD000880F991FEF81F885E80FF91F859194917B
:101FE0002FEF8F3F920711F4188211C09C8790E069
:101FF000880F991FEA85FB85E80FF91F6591749199
:10200000CE0140E00E94C00F89858F5F8987DF91F4
:10201000CF91089560E00E94DB0F089560E00E9478
:10202000AE0F08950F93DC01002309F069C0623000
:1020300009F443C0633030F4662359F0613009F08D
:102040005FC00DC0633009F444C0643009F058C06B
:102050004CC04B3008F04AE056964C9351C0842F48
:1020600090E0880F991F1F962D913C915097280F53
:10207000391FF9018591949190969C938E935F9767
:10208000FC014591549114968C911497849F602D76
:10209000112491966C939197252F3327862F90E0EA
:1020A0002817390708F4652F14968C911497689FA8
:1020B000802D112492968C9323C014968C911497A2
:1020C000489F802D112459968C9359975A962C939A
:1020D00017C014968C911497489F802D11245B96FD
:1020E0008C935B975C962C930BC014968C911497F1
:1020F000489F802D11245D968C935D975E962C935E
:102100000F9108950F93CF93DF93EC01662309F0AD
:102110007BC08981882309F477C08D89882309F0E1
:1021200073C0EA89FB89EE0FFF1F4D855E85E40FC2
:10213000F51F259134912115310509F049C0898990
:10214000813031F41B8A1A8AFA012591349140C0FA
:1021500019828881882379F0CE0160E00E94DB0F2C
:102160008A899B89880F991FED85FE85E80FF91FE5
:10217000259134912DC01F8A1D8A1CA21BA2188E86
:102180001092C2031092C1031092BF031092B400C8
:102190003BC006E0369527950A95E1F76F70422F10
:1021A0004F71B5E036952795BA95E1F72051CE01EC
:1021B00000E00E9412108A899B8901969B8B8A8B72
:1021C000880F991FED85FE85E80FF91F2591349141
:1021D000B901769567957695679520FDDACF862FBC
:1021E0008F738C8B8C81839F802D11248D8B1DA2EE
:1021F0001CA21BA281E08F8B8093BF03188E8A895B
:102200009B8901969B8B8A8BDF91CF910F910895CB
:1022100060E00E9482100895CF93DF93EC01662363
:1022200009F0E9C08F89882309F4E5C08D898823E6
:1022300071F41F8A1D8A1CA21BA2188E1092C20361
:102240001092C1031092BF031092B400D4C0815009
:102250008D8B8DA1882309F044C08BA19CA1019690
:10226000880F991FEF8DF8A1E80FF91F85919491C0
:10227000282F27702EA3AC0173E0569547957A95C9
:10228000E1F79A0136952795892F992786958695A6
:102290008FA32F738C81289F202D11242DA3417093
:1022A0004093C3038BA19CA101969CA38BA329A15E
:1022B00030E082179307A8F08AA1882329F0281B11
:1022C00031093CA32BA30DC01F8A1D8A1CA21BA28F
:1022D000188E1092C2031092C1031092BF03109285
:1022E000B4008DA181508DA3988D9F5F988F2FA1F1
:1022F0008C89280F8C85280F2A836B8D662369F0C3
:10230000892F992787FD909570E00E94341A8C8D53
:10231000869F802D1124820F8A838A8190E0CB963C
:102320006BE370E00E94341A8A832E892B83698DB7
:10233000662379F0888D772767FD7095992787FD4B
:1023400090950E94341A8A8D869F802D1124820FC9
:102350008B836D8D662399F0888D992787FD9095E5
:1023600070E00E94341ACB0162E070E00E94341ADF
:102370009E8D899F802D11249B81890F8B838B815A
:102380008A300CF089E087FD80E08B838C898F3365
:1023900009F41B82F894EA81F0E0E558FC4FE491DF
:1023A000E093C0032D8130E08B81992787FD9095C4
:1023B000A901489F9001499F300D589F300D11246D
:1023C00088A590E0A901489F9001499F300D589F32
:1023D000300D11248EA1992787FD9095AC01249F83
:1023E000C001259F900D349F900D11248093C1034F
:1023F0008093C2037894DF91CF91089560E00E94AA
:102400000C1108956091C103662381F18091BE0390
:102410008F5F8093BE039091C003891738F130E03D
:102420008091BF03882309F431E03093BF031092F9
:10243000BE038091C3038823A9F080911A0123E48D
:10244000829FC0011124895B80931A0190E070E0A3
:102450000E94201A8093C20305C08091C20380931A
:10246000B40008953323C9F780E0F9CF08951F928F
:102470000F920FB60F9211242F933F934F935F93B8
:102480006F937F938F939F93AF93BF93EF93FF933C
:102490000E940212FF91EF91BF91AF919F918F9196
:1024A0007F916F915F914F913F912F910F900FBE50
:1024B0000F901F90189563E773E040E00E94C00FF3
:1024C00008956BE673E040E00E94C00F089565E652
:1024D00073E040E00E94C00F0895FC01862F6681E2
:1024E00070E06F5F7F4F992787FD90950E94341AA7
:1024F000858308950F93FC0181E0848384E080A7A5
:1025000086EB93E0908B8787CF0161E040E020E08D
:1025100000E00E94121083E061E070E00E94F91375
:10252000E1EBF0E08081887F81608083F8941092F5
:102530008000E1E8F0E010821092850010928400A3
:1025400088E191E090938900809388008081886081
:102550008083808181608083EFE6F0E0808182600B
:10256000808378940F910895F999FECF72BD61BD73
:10257000F89A80B50895F999FECF1FBA72BD61BD72
:1025800040BD0FB6F894FA9AF99A0FBE08951F92BB
:102590000F920FB60F9211242F933F938F939F9317
:1025A000AF93BF938091C9039091CA03A091CB03CD
:1025B000B091CC033091CD030196A11DB11D232F05
:1025C0002D5F2D3720F02D570196A11DB11D2093B1
:1025D000CD038093C9039093CA03A093CB03B09318
:1025E000CC038091C5039091C603A091C703B0911D
:1025F000C8030196A11DB11D8093C5039093C60326
:10260000A093C703B093C803BF91AF919F918F91DF
:102610003F912F910F900FBE0F901F9018958FB77D
:10262000F8942091C9033091CA034091CB03509193
:10263000CC038FBFB901CA0108959FB7F8942091C8
:10264000C5033091C6034091C7035091C80386B5B6
:10265000A89B06C08F3F21F02F5F3F4F4F4F5F4F2A
:102660009FBF542F432F322F2227280F311D411D8A
:10267000511D82E0220F331F441F551F8A95D1F749
:10268000B901CA0108959B01AC017FB7F89480910C
:10269000C5039091C603A091C703B091C80366B566
:1026A000A89B05C06F3F19F00196A11DB11D7FBF0A
:1026B000BA2FA92F982F8827860F911DA11DB11D14
:1026C00062E0880F991FAA1FBB1F6A95D1F7BC0152
:1026D0002DC0FFB7F8948091C5039091C603A091D7
:1026E000C703B091C803E6B5A89B05C0EF3F19F03A
:1026F0000196A11DB11DFFBFBA2FA92F982F8827C2
:102700008E0F911DA11DB11DE2E0880F991FAA1F18
:10271000BB1FEA95D1F7861B970B885E9340C8F2E2
:10272000215030404040504068517C4F21153105C8
:102730004105510571F60895789484B5826084BD91
:1027400084B5816084BD85B5826085BD85B58160B5
:1027500085BDEEE6F0E0808181608083E1E8F0E015
:102760001082808182608083808181608083E0E844
:10277000F0E0808181608083E1EBF0E08081846023
:102780008083E0EBF0E0808181608083EAE7F0E025
:102790008081846080838081826080838081816089
:1027A00080838081806880831092C1000895982F73
:1027B0008E3008F09E50977080911B018295880F93
:1027C000880F807C892B80937C0080917A008064C4
:1027D00080937A0080917A0086FDFCCF209178006A
:1027E00040917900942F80E030E0282B392BC901EB
:1027F00008951F93CF93DF93182FEB0161E00E94A0
:102800005914209709F44AC0CF3FD10509F449C0B3
:10281000E12FF0E0E85FFB4F84918330C1F084301A
:1028200028F4813051F08230B1F50CC0863019F1B6
:10283000873049F1843079F514C084B5806884BD4F
:10284000C7BD33C084B5806284BDC8BD2EC0809131
:102850008000806880938000D0938900C0938800B6
:1028600024C080918000806280938000D0938B0090
:10287000C0938A001AC08091B00080688093B00035
:10288000C093B30012C08091B00080628093B0000A
:10289000C093B4000AC0C038D1051CF4812F60E099
:1028A00002C0812F61E00E949814DF91CF911F91A7
:1028B0000895CF93DF93482F50E0CA018C509C4F6E
:1028C000FC01349140525C4FFA018491882369F1F4
:1028D00090E0880F991FFC01EE53FC4FA591B49135
:1028E000FC01E453FC4FC591D491662351F42FB7FA
:1028F000F8948C91932F909589238C9388818923C8
:102900000BC0623061F42FB7F8948C91932F90959F
:1029100089238C938881832B88832FBF06C09FB720
:10292000F8948C91832B8C939FBFDF91CF91089566
:10293000482F50E0CA01885F9B4FFC012491CA01D7
:102940008C509C4FFC01949140525C4FFA013491A1
:10295000332309F440C0222351F1233071F0243095
:1029600028F42130A1F0223011F514C02630B1F046
:102970002730C1F02430D9F404C0809180008F77D3
:1029800003C0809180008F7D8093800010C084B54B
:102990008F7702C084B58F7D84BD09C08091B0005F
:1029A0008F7703C08091B0008F7D8093B000E32FBC
:1029B000F0E0EE0FFF1FE453FC4FA591B4912FB749
:1029C000F894662321F48C919095892302C08C9110
:1029D000892B8C932FBF0895682F70E0CB01885FFF
:1029E0009B4FFC012491CB018C509C4FFC014491E6
:1029F00060527C4FFB019491992319F420E030E060
:102A00003CC0222351F1233071F0243028F42130CE
:102A1000A1F0223011F514C02630B1F02730C1F0FA
:102A20002430D9F404C0809180008F7703C0809156
:102A300080008F7D8093800010C084B58F7702C0A6
:102A400084B58F7D84BD09C08091B0008F7703C0AD
:102A50008091B0008F7D8093B000892F90E0880F27
:102A6000991F8A529C4FFC01A591B4918C9120E052
:102A700030E0842311F021E030E0C9010895089589
:102A80001F920F920FB60F9211242F933F934F93E3
:102A90008F939F93EF93FF938091C00082FD1DC0A1
:102AA0004091C60020910E0430910F042F5F3F4FDC
:102AB0002F733070809110049091110428173907FA
:102AC00071F0E0910E04F0910F04E253FC4F40834B
:102AD00030930F0420930E0402C08091C600FF9132
:102AE000EF919F918F914F913F912F910F900FBE3A
:102AF0000F901F901895E0916204F0916304E05CE0
:102B0000FF4F8191919120813181821B930B8F73B3
:102B10009070892B11F00E943F1508951F920F921B
:102B20000FB60F9211242F933F938F939F93EF93A0
:102B3000FF9320915204309153048091540490915A
:102B400055042817390731F48091C1008F7D809397
:102B5000C10014C0E0915404F0915504EE5EFB4FA7
:102B60002081809154049091550401968F73907048
:102B700090935504809354042093C600FF91EF91E5
:102B80009F918F913F912F910F900FBE0F901F90AB
:102B90001895AF92BF92DF92EF92FF920F931F931F
:102BA000CF93DF93EC017A018B01DD24403081EE7D
:102BB000580780E0680780E0780711F0DD24D3949F
:102BC00091E0A92EB12CEC89FD89DD2069F0C501C9
:102BD00008A002C0880F991F0A94E2F7808360E082
:102BE00079E08DE390E005C0108260E874E88EE142
:102BF00090E0A80197010E94471A215030404040C0
:102C00005040569547953795279580E120303807F5
:102C100020F0DD2011F0DD24D6CFE889F98930835A
:102C2000EA89FB89208319A2EE89FF89408121E08E
:102C300030E0C9010C8C02C0880F991F0A94E2F79A
:102C4000482B4083EE89FF894081C9010D8C02C069
:102C5000880F991F0A94E2F7482B4083EE89FF8979
:102C60004081C9010E8C02C0880F991F0A94E2F7B7
:102C7000482B4083EE89FF8980810F8C02C0220F90
:102C8000331F0A94E2F7209528232083DF91CF9108
:102C90001F910F91FF90EF90DF90BF90AF9008953C
:102CA000DC011C96ED91FC911D97E05CFF4F21919A
:102CB000319180819181281B390B2F733070C901AC
:102CC0000895DC011C96ED91FC911D97E05CFF4F8F
:102CD00020813181E054F040DF01AE5BBF4F8D9128
:102CE0009C9111972817390719F42FEF3FEF07C070
:102CF0008D919C91E80FF91F8081282F30E0C90148
:102D00000895DC011C96ED91FC911D97E05CFF4F4E
:102D100020813181E054F040DF01AE5BBF4F8D91E7
:102D20009C9111972817390719F42FEF3FEF10C026
:102D30008D919C911197E80FF91F20818D919C91A5
:102D4000119701968F73907011969C938E9330E03B
:102D5000C9010895DC0191968C919197882339F0EF
:102D60005496ED91FC915597808186FFF9CF91960D
:102D70001C920895CF93DF93EC01EE85FF85E05C14
:102D8000FF4F20813181E054F0402F5F3F4F2F7380
:102D90003070DF01AE5BBF4F8D919C91119728176A
:102DA0003907D1F3E05CFF4F80819181E054F0401E
:102DB000E80FF91F6083EE85FF85E05CFF4F3183EC
:102DC0002083EE89FF89208181E090E00F8C02C092
:102DD000880F991F0A94E2F7282B208381E089A3AA
:102DE000EC89FD8980818064808381E090E0DF91BF
:102DF000CF910895109259041092580488EE93E0F0
:102E0000A0E0B0E080935A0490935B04A0935C042C
:102E1000B0935D0488E291E0909357048093560448
:102E20008EEC93E0909363048093620482E194E0DB
:102E3000909365048093640485EC90E0909367041C
:102E40008093660484EC90E0909369048093680416
:102E500080EC90E090936B0480936A0481EC90E0A6
:102E600090936D0480936C0482EC90E090936F04D7
:102E700080936E0486EC90E09093710480937004CC
:102E800084E08093720483E08093730487E08093EE
:102E9000740485E08093750481E08093760408953E
:102EA000CF93DF930E949C130E94F702CBE7D5E1FA
:102EB0000E94EB022097E1F30E947B15F9CFCF929D
:102EC000DF92EF92FF920F931F93CF93DF937C01DA
:102ED0006B018A01C0E0D0E00FC0D6016D916D0199
:102EE000D701ED91FC910190F081E02DC70109958A
:102EF000C80FD91F015010400115110571F7CE01FF
:102F0000DF91CF911F910F91FF90EF90DF90CF90C5
:102F10000895EF92FF920F931F93CF93DF937C015D
:102F20008B01C0E0D0E0F8010F5F1F4F6491662372
:102F300059F0D701ED91FC910190F081E02DC7018E
:102F40000995C80FD91FEFCFCE01DF91CF911F9107
:102F50000F91FF90EF900895DC01ED91FC910190AD
:102F6000F081E02D09950895EF92FF920F931F9342
:102F70008C01DC01ED91FC910190F081E02D6DE080
:102F800009957C01D801ED91FC910190F081E02D33
:102F9000C8016AE009959C012E0D3F1DC9011F91D2
:102FA0000F91FF90EF900895EF92FF920F931F9370
:102FB0007C010E9489178C01C7010E94B4179C01F3
:102FC000200F311FC9011F910F91FF90EF900895BD
:102FD000CF93DF93EC016115710519F420E030E027
:102FE0000FC0DB010D900020E9F71197A61BB70B6E
:102FF000E881F9810280F381E02DAD0109959C0102
:10300000C901DF91CF9108954F925F927F928F9285
:103010009F92AF92BF92CF92DF92EF92FF920F9367
:103020001F93DF93CF93CDB7DEB7A1970FB6F89478
:10303000DEBF0FBECDBF2C01742ECB01223008F4B1
:103040002AE019A231E2C32ED12CCC0EDD1E822E35
:103050009924AA24BB24672D752FA50194010E94F1
:10306000471A79018A01C801B701A50194010E949C
:10307000011A472D461B0894C108D1084A3014F4A0
:10308000405D01C0495CF6014083E114F104010593
:10309000110521F07E2C5F2DC801DDCFC201B601E4
:1030A0000E94E817A1960FB6F894DEBF0FBECDBF01
:1030B000CF91DF911F910F91FF90EF90DF90CF9014
:1030C000BF90AF909F908F907F905F904F900895AA
:1030D000DC012115310541F4ED91FC910190F08165
:1030E000E02D642F099508950E9404180895EF9229
:1030F000FF920F931F939A017B0100E010E0B8014B
:10310000A7010E9468181F910F91FF90EF900895FA
:10311000EF92FF920F931F937C010E94E8178C019E
:10312000C7010E94B417080F191FC8011F910F9102
:10313000FF90EF9008952F923F924F925F926F927F
:103140007F928F929F92AF92BF92CF92DF92EF9237
:10315000FF920F931F93DF93CF93CDB7DEB73B0161
:103160004C0119012A016D897E898F89988D6A1910
:103170007B098C099D09621A730A840A950AA401C5
:1031800093010E94011AE218F30804091509A80125
:1031900097010E94691A2A0D3B1D4C1D5D1DB90146
:1031A000CA01CF91DF911F910F91FF90EF90DF90B7
:1031B000CF90BF90AF909F908F907F906F905F90D7
:1031C0004F903F902F90089598D088F09F5790F09F
:1031D000B92F9927B751A0F0D1F0660F771F881F3C
:1031E000991F1AF0BA95C9F712C0B13081F09FD07B
:1031F000B1E008959CC0672F782F8827B85F39F019
:10320000B93FCCF3869577956795B395D9F73EF49A
:1032100090958095709561957F4F8F4F9F4F089542
:10322000E89409C097FB3EF4909580957095619560
:103230007F4F8F4F9F4F9923A9F0F92F96E9BB2716
:103240009395F695879577956795B795F111F8CF92
:10325000FAF4BB0F11F460FF1BC06F5F7F4F8F4FFD
:103260009F4F16C0882311F096E911C0772321F0F3
:103270009EE8872F762F05C0662371F096E8862F8B
:1032800070E060E02AF09A95660F771F881FDAF7E2
:10329000880F9695879597F9089597F99F6780E825
:1032A00070E060E008959FEF80EC089500240A9498
:1032B0001616170618060906089500240A94121611
:1032C0001306140605060895092E0394000C11F444
:1032D000882352F0BB0F40F4BF2B11F460FF04C0F1
:1032E0006F5F7F4F8F4F9F4F089557FD9058440F4A
:1032F000551F59F05F3F71F04795880F97FB991F55
:1033000061F09F3F79F08795089512161306140611
:10331000551FF2CF4695F1DF08C01616170618069E
:10332000991FF1CF86957105610508940895E89479
:10333000BB2766277727CB0197F908950BD0C4CF19
:10334000B5DF28F0BADF18F0952309F0A6CFABCF90
:103350001124EECFCADFA0F3959FD1F3950F50E073
:10336000551F629FF001729FBB27F00DB11D639F37
:10337000AA27F00DB11DAA1F649F6627B00DA11DDD
:10338000661F829F2227B00DA11D621F739FB00D83
:10339000A11D621F839FA00D611D221F749F3327F3
:1033A000A00D611D231F849F600D211D822F762F8C
:1033B0006A2F11249F5750408AF0E1F088234AF089
:1033C000EE0FFF1FBB1F661F771F881F91505040D5
:1033D000A9F79E3F510570F060CFAACF5F3FECF395
:1033E000983EDCF3869577956795B795F795E795C1
:1033F0009F5FC1F7FE2B880F911D9695879597F9D2
:103400000895629FD001739FF001829FE00DF11D2E
:10341000649FE00DF11D929FF00D839FF00D749F4E
:10342000F00D659FF00D9927729FB00DE11DF91FFA
:10343000639FB00DE11DF91FBD01CF011124089557
:10344000AA1BBB1B51E107C0AA1FBB1FA617B707CA
:1034500010F0A61BB70B881F991F5A95A9F78095E6
:103460009095BC01CD01089597FB092E07260AD03F
:1034700077FD04D0E5DF06D000201AF47095619541
:103480007F4F0895F6F7909581959F4F0895A1E29B
:103490001A2EAA1BBB1BFD010DC0AA1FBB1FEE1FCE
:1034A000FF1FA217B307E407F50720F0A21BB30B19
:1034B000E40BF50B661F771F881F991F1A9469F795
:1034C00060957095809590959B01AC01BD01CF01F1
:1034D000089597FB092E05260ED057FD04D0D7DF9F
:1034E0000AD0001C38F450954095309521953F4FF7
:1034F0004F4F5F4F0895F6F79095809570956195C1
:103500007F4F8F4F9F4F0895EE0FFF1F0590F4914F
:08351000E02D0994F894FFCFAF
:103518004D61696E2067616D652073637265656EC4
:10352800004C4F4144455200A00201010000000038
:1035380070085F1700000000BA165F175016811652
:043548006116AA1648
:00000001FF
